:1000000006308A00492E00000A108A100A11820761
:100010003F3406345B344F3466346D347D340734FA
:100020007F346F34BF348634DB34CF34E634ED3480
:10003000FD348734FF34EF34393463340034C10184
:100040004108073C031C36280310C00C03182A285B
:1000500086112B2886158316861186108312861426
:100060008316861083128610C10A20280800831682
:100070000611831206153E08C0001F203F08C0006D
:100080001F2083160611831206110800831606111D
:10009000831206153408C0001F20831686155028C9
:1000A0008312B5013508073C031C6D28831686159D
:1000B000831286195D2803105E280314B60C83167C
:1000C000861083128614642865288316861083128E
:1000D00086106A286B28B50A5228831606118312E7
:1000E00006113608F800080083160611831206115F
:1000F00079287A2883168610831286108E30BE00E7
:10010000BF0137209030BE00A430BF0037208130BF
:10011000B40046207808B0003008803903199428CC
:100120008030BE00BF0137208A110A12A52EF701C8
:10013000F801400803104118F707F70CF80CC11834
:10014000F707F70CF80C4119F707F70CF80CC11971
:10015000F707F70CF80C411AF707F70CF80CC11A5F
:10016000F707F70CF80C411BF707F70CF80CC11B4D
:10017000F707F70CF80C08003508B600360EF70044
:100180000F30F7057708B800C0000A30C10097208B
:100190007808B50036080F39B5073508F8000800AB
:1001A00041080739F700410CF800F80CF80C1F3033
:1001B000F805780843078400831344188317F8016F
:1001C000F80AF70AE428F80DF70BE328C208031928
:1001D000EC2878088004EF28F809780880050800E2
:1001E0003E080420FF3AC0008316880183124008AD
:1001F00088003F08C0004008C100C201C401C3011B
:10020000D0204008C100C201C4018030C300D0200A
:100210000130C100413084008313000803191D29F7
:100220000230F800F701F70B1329F80B1229973069
:10023000F700F70B1929800B10294008C100013085
:10024000C200C401C301D0204008C100C201C401E2
:100250008030C300D0200800B801B901B8013708C8
:10026000380203185A29B90139081D3C031C5829C2
:100270001630BE002830BF00F0201630BE002930F6
:10028000BF00F0201630BE002A30BF00F02016302C
:10029000BE002B30BF00F0201630BE002C30BF0057
:1002A000F0201630BE002D30BF00F020B90A3429EE
:1002B000B80A2F2908004108F801400203186329F1
:1002C0004008F7006F29F7010830C200C00DF70D94
:1002D000410877020318F700F80DC20B66290800E1
:1002E0003D08C0000A30C1005B217808BE003E080E
:1002F000C0000A30C100972078083D02BF003E0EC2
:10030000F700F030F70577083F04F80008003C08D4
:10031000C0000A30C1005B217708BD00BE00283054
:10032000BF00F0203C08C0000A30C1005B21780803
:10033000BD00BE002930BF00F0203B08C0000A30DD
:10034000C1005B217708BD00BE002A30BF00F0204D
:100350003B08C0000A30C1005B217808BD00BE0028
:100360002B30BF00F0203A08C0000A30C1005B21EA
:100370007708BD00BE002C30BF00F0203A08C00056
:100380000A30C1005B217808BD00BE002D30BF00DF
:10039000F02008003C08C0000A30C1005B210A3090
:1003A0007707BD00BE002830BF00F0203C08C00029
:1003B0000A30C1005B217808BD00BE002930BF00B3
:1003C000F0203B08C0000A30C1005B210A307707EB
:1003D000BD00BE002A30BF00F0203B08C0000A303C
:1003E000C1005B217808BD00BE002B30BF00F020AB
:1003F0003A08C0000A30C1005B210A307707BD000F
:10040000BE002C30BF00F0203A08C0000A30C10006
:100410005B217808BD00BE002D30BF00F020080031
:10042000B801B901B801370838020318682AB901C0
:1004300039081D3C031C662AAD08031D422A0330FF
:100440002102FC3E0318412A043E692A2708BA000B
:100450002508BB00BC018721412A2708BA002808CB
:10046000BB00BC018721412A2208BA002308BB0037
:10047000BC018721412A2208BA002308BB00BC0125
:100480008721642A03302102FC3E0318642A043EBB
:10049000712A2708BA002808BB00BC01CA21642AB7
:1004A0002708BA002808BB00BC01CA21642A220818
:1004B000BA002308BB00BC01CA21642A2208BA0082
:1004C0002308BB00BC01CA21B90A182AB80A132A9A
:1004D00008000A108A140A118207262A2D2A342AB3
:1004E0003B2A0A108A140A118207492A502A572ADD
:1004F0005E2A83160614831206188E2A83160614A3
:1005000083120618872A0130B7002C217E2A210881
:10051000013C03188D2AA1018E2AA10A201420086B
:1005200083168700831207180F2B201420088316C8
:10053000870083120718A02A0130B7002C21952AC2
:100540002108F93E03180F2B073E932B0130A10021
:100550000F2B0630A1000F2BA1012908B7002A0894
:10056000B8002B08B9002C08BA002708BB002808DF
:10057000BC003708BD0070217808BD008630BE0081
:100580007808BF0037203808BD0070217808BD000A
:100590008830BE007808BF0037203908BD007021C0
:1005A0007808BD008C30BE007808BF0037203A08BC
:1005B000BD0070217808BD008A30BE007808BF00F9
:1005C00037203B08BD0070217808BD008430BE0094
:1005D0007808BF0037203C08BD0070217808BD00B6
:1005E0008230BE007808BF003720BD017021780836
:1005F000BD008030BE007808BF0037202708A40067
:100600002808A5000F2B0430A1000F2B0530A100F6
:100610000F2B0330A1002408A7002508A8002015EF
:10062000200883168700831207194D2B20152008F8
:1006300083168700831207194D2B0130B700102253
:100640002108033C031D2A2BA70A2708173C031C7B
:10065000A7014C2B2108043C031D342BA80A2808B1
:100660003B3C031CA8014C2B210B392B0130AD0066
:100670004C2B2108053C031D432BA20A2208173CE2
:10068000031CA2014C2B2108063C031D4C2BA30A82
:1006900023083B3C031CA301162BA015200883163E
:1006A000870083128719922BA015200883168700D4
:1006B00083128719922B0130B7001022210B622B75
:1006C000AD01912B2108033C031D6E2BA708031DD0
:1006D0006C2B1730A7006D2BA703912B2108043C2E
:1006E000031D7A2BA808031D782B3B30A800792B1B
:1006F000A803912B2108053C031D862BA208031D8E
:10070000842B1730A200852BA203912B2108063CD5
:10071000031D912BA308031D902B3B30A300912BAD
:10072000A303542B08000A148A140A118207092B08
:10073000062B0F2B032BAC2AA92AA62A0830B802B5
:10074000031CAE2B3830840083130310800C000888
:100750000319AE2BAC2B0000800BAB2B0800A010B4
:10076000200883168700831287100230B700F83004
:10077000B8009E23B70BB72BA01420088316870060
:1007800002308312B700F830B8009E23B70BC32B9A
:10079000A01420088316870083120800B8013808C7
:1007A000073C031CF52BA01020088316870083123A
:1007B0008710DA2BDB2B0310B70C0318E12B871003
:1007C000E22B8714A0102008831687002730F7003B
:1007D000F70BE82BEB2B8312A0142008831687005D
:1007E000F12BF22B8312B80ACF2B0800B701370880
:1007F000073C031C202CA0102008831687008312BE
:100800008710022C032CA0142008831687000430C4
:10081000F700F70B092C0C2C00008312A014200801
:100820008316870083128718172C0310182C0314C3
:10083000B80C4F30F700F70B1B2C1E2CB70AF72B08
:100840003808F8000800B101AF23CC30B700CE2340
:100850004430B700CE23B108031D552C3008B70033
:100860003708C0000A30C1005B217708B800BE001D
:100870002A30BF00F0203708C0000A30C1005B21D9
:100880007808B800BE002B30BF00F0201530BE0045
:100890002930BF00F0201430BE002830BF00F02007
:1008A0007922F6237808B1002B2CAF23CC30B70087
:1008B000CE23BE30B700CE23F6237808B200F6234D
:1008C0007808B3003308B5003208B400350CFA00DC
:1008D000340CF900FA0CF90CFA0CF90CFA0CF90CBE
:1008E0007908B6003608F8008A110A12EC2EB00119
:1008F0000130B7002C2126081D3C031CBF2C85307D
:10090000B40046207808B100B500BC207808A400E7
:100910008330B40046207808B100B500BC207808C8
:10092000A5008130B40046207808B100B500BC2095
:100930007808A600B00130081D3C031CA82C240830
:10094000BA002508BB002608BC00CA21B00A9B2CAF
:100950000130B7002C218316061483120618BE2C12
:100960008316061483120618BD2C2408BA00250825
:10097000BB002608BC00CA21B02CBF2C7B2C8A11DE
:100980000A12FB2EB501B50135081D3C031CF22CE3
:10099000BE012830BF00F020BE012930BF00F0208A
:1009A0003308C0000A30C1005B217708B600BE00E2
:1009B0002A30BF00F0203308C0000A30C1005B219C
:1009C0007808B600BE002B30BF00F0201630BE0005
:1009D0002C30BF00F0201630BE002D30BF00F020BC
:1009E000B50AC42CB50135081D3C031C002D320886
:1009F000BA003308BB003408BC008721B50AF32CC9
:100A00000800B501B50135081D3C031C312DBE01A0
:100A10002830BF00F020BE012930BF00F020163082
:100A2000BE002A30BF00F0201630BE002B30BF00C1
:100A3000F0203208C0000A30C1005B217708B60000
:100A4000BE002C30BF00F0203208C0000A30C100C8
:100A50005B217808B600BE002D30BF00F020B50A3B
:100A6000032DB50135081D3C031C3F2D3208BA008B
:100A70003308BB003408BC008721B50A322D0800BA
:100A8000B501B50135081D3C031C722D0A30BE00AE
:100A90002830BF00F020BE012930BF00F02033080D
:100AA000C0000A30C1005B210A307707B600BE00E3
:100AB0002A30BF00F0203308C0000A30C1005B219B
:100AC0007808B600BE002B30BF00F0201630BE0004
:100AD0002C30BF00F0201630BE002D30BF00F020BB
:100AE000B50A422DB50135081D3C031C802D320886
:100AF000BA003308BB003408BC00CA21B50A732D04
:100B00000800B501B50135081D3C031CB32D0A30A2
:100B1000BE002830BF00F020BE012930BF00F02009
:100B20001630BE002A30BF00F0201630BE002B3039
:100B3000BF00F0203208C0000A30C1005B210A303B
:100B40007707B600BE002C30BF00F0203208C0008E
:100B50000A30C1005B217808B600BE002D30BF000E
:100B6000F020B50A832DB50135081D3C031CC12DAD
:100B70003208BA003308BB003408BC00CA21B50AE9
:100B8000B42D0800B101B101300831020318302E34
:100B9000AD08031DFD2D2108F93E0318FC2D073E6D
:100BA000332E2408BA002508BB002608BC00872184
:100BB000FC2D2208BA002308BB00BC018721FC2DB4
:100BC000FC2D2708B2002808B300B401C224FC2D74
:100BD0002708B2002808B300B4010125FC2D220823
:100BE000B2002308B300B401C224FC2D2208B200D5
:100BF0002308B300B40101252E2E2108F93E031865
:100C00002E2E073E3E2E2408BA002508BB002608DB
:100C1000BC00CA212E2E2208BA002308BB00BC014A
:100C2000CA212E2E2E2E2708B2002808B300B401A8
:100C300040252E2E2708B2002808B300B4018125D4
:100C40002E2E2208B2002308B300B40140252E2E18
:100C50002208B2002308B300B4018125B10AC42DD3
:100C60008A110A12FE2E0A108A140A158207D12D43
:100C7000D92DE02DE12DE82DEF2DF62D0A108A1447
:100C80000A158207032E0B2E122E132E1A2E212E3A
:100C9000282E03081F3983008316031787110C3091
:100CA00003139900A2309800903083129800FF300F
:100CB000A000A1010230A2000530A3000230A40070
:100CC0000430A5002D30A600A701A8010530A90019
:100CD0000430AA000F30AB000230AC000130AD0090
:100CE000831603170908C039890003131F129F12C6
:100CF000003003178800831287018801890183135C
:100D00000313AF01831603170908C03989000313C1
:100D10001F129F12003003178800831203131F1045
:100D2000940183160108C7390838810083129001A5
:100D30000030F800920000308316920083120317EF
:100D4000870188018901031374288530B400462087
:100D50007808B100B500BC207808A4008330B40046
:100D600046207808B100B500BC207808A500813085
:100D7000B40046207808B100B500BC207808A60071
:100D80008730B40046207808B000B500BC20780851
:100D9000A9008930B40046207808B000B500BC2016
:100DA0007808AA008D30B40046207808B000B5005D
:100DB000BC207808AB008B30B40046207808B00027
:100DC000B500BC207808AC0079222108023C031D44
:100DD000EE2E2E08B000232C7808AE002D0BFB2E33
:100DE00022082402031DFB2E23082502031DFB2ECF
:100DF000A6080319772C0130B000C22DA52E630080
:04400E00E22CFF3F62
:00000001FF
;PIC16F887
;CRC=E121  CREATED="07-Apr-16 13:04"
